:04000000020049327F
:03000B000200F5FB
:0100130032BA
:01001B0032B2
:0100230032AA
:01002B0032A2
:01003300329A
:01003B003292
:030043000200B602
:0300B30002004602
:0300460002013480
:2000B600C021C0E0C0F0C082C083C007C006C005C004C003C002C001C000C0D075D0001271
:2000D60005D3D0D0D000D001D002D003D004D005D006D007D083D082D0F0D0E0D02132C0FE
:2000F60021C0E0C0F0C082C083C007C006C005C004C003C002C001C000C0D075D0001201F0
:200116008AD0D0D000D001D002D003D004D005D006D007D083D082D0F0D0E0D021321201B8
:11013600781201A212084B120F20D2AF120F5380FB75
:20014700AE82AF83EE4F6011E5C330E7FBE5C320E7FB1EBEFF011F80EB22C2A9781686829B
:20016700088683D2A92275A15575A1AA2275A1002275A15575A1AA74F855B94406F5B97533
:20018700A10022758A30758CF878168606088607781674012EF6E43F08F622758A30758C24
:0F01A700F84389017816E4F608F6D2A9D28C2223
:1801B60075E200C2AF90000112014702380075A15575A1AA43B11022F3
:2001CE00D291D297D296D295D2B2D2B1D2B0D2B4D2B3227F10EF6004001F80F922C2B2129E
:2001EE0001E1A291B39200E433F53F758200120EC6A297B39200E433F53F758201120EC6C8
:20020E00A296B39200E433F53F758202120EC6A295B39200E433F53F758203120EC6D2B2FE
:20022E00C2B11201E1A291B39200E433F53F758204120EC6A297B39200E433F53F758205E0
:20024E00120EC6A296B39200E433F53F758206120EC6A295B39200E433F53F758207120E1A
:20026E00C6D2B1C2B01201E1A291B39200E433F53F758208120EC6A297B39200E433F53F50
:20028E00758209120EC6A296B39200E433F53F75820A120EC6A295B39200E433F53F7582FD
:2002AE000B120EC6D2B0C2B41201E1A291B39200E433F53F75820C120EC6A297B39200E445
:2002CE0033F53F75820D120EC6A296B39200E433F53F75820E120EC6A295B39200E433F584
:2002EE003F75820F120EC6D2B4C2B31201E1A291B39200E433F53F758210120EC6A297B33A
:20030E009200E433F53F758211120EC6A296B39200E433F53F758212120EC6A295B39200D1
:0D032E00E433F53F758213120EC6D2B322E0
:20142C00530000005400000055000000F13800005F00000060000000610000005600000005
:20144C005C0000005D0000005E00000057000000590000005A0000005B00000028000000DC
:20146C00C1010000620000006300000000000001430000004400000045000000F1380000E3
:20148C00400000004100000042000000E93A00003D0000003E0000003F000000F13A000075
:2014AC003A0000003B0000003C00000067000000C1010000290000002A00000000000000F3
:20033B00900131E024F750067E087F008008900131E0FDFE7F008EDDE5DD602B85080B8511
:20035B00090C750D8085DD0E750F0090011375F00012131E900131E0C395DDF0E5DD250875
:20037B00F508E43509F5092275DCC0900131E4F090011475F0001213D4FF24F45003020508
:20039B003FEF240A83F582EF241083F583E4737D8A3FF93F4AC23F705B3F1B040405040573
:2003BB000403050404050590011675F0001213D4FFBF0102800ABF02028013BF2249801C98
:2003DB009001317412F07508CC7509148039900131743BF07508DE750914802B9001177520
:2003FB00F0001213D4FF6005BF011C800E900131742DF0750819750915800C9001317415D8
:20041B00F0750846750915900131E0700302053F90011975F0001213D4FF900131E0FEC3B6
:20043B00EF9E5005900131EFF043D10202033B90011575F0001213D4900131F053D1FD22CF
:20045B00E5E3547FFF90011575F0001213D40354804FF5E322E5E3235401900113F075DD9D
:20047B000122900113E4F0900114F075DD0222900113E0FFBFA102800302053F90011775F0
:20049B00F0001213D4FF6008BF0102802A02053F7F00BF0800501CEF2413FDE43401FEEF64
:2004BB00241DF582E43401F583E0FC8D828E83F00F80DF75DD08227F00BF0800501CEF243D
:2004DB0013FDE43401FEEF2427F582E43401F583E0FC8D828E83F00F80DF75DD0822900131
:2004FB0013E0FFBFA13E90011775F0001213D4FF60028030A201E433900113F075DD012277
:20051B00900113E0FFBF211C90011775F0001213D4FF6002800E90011575F0001213D42424
:20053B00FF92012243DC0F22900131E0700122E5D130E10712033B63DC4022748055E3FF7D
:20055B00900131E04FF5E32222AF82C2EAEF241DF582E43401F583E0FFD2EA8F8222AF825F
:20057B00C2EAEF241DF582E43401F583E50AF0D2EA02058F53D2FC2253D2FCE5D230E1FB24
:20059B002274FC55D24402F5D222AF82C2EAEF75F002A42427F582740135F0F583E50BF0CD
:2005BB00E50CA3F0D2EA53D4FCE5D430E1FB2274FC55D44402F5D42220D90302082875DD8C
:2005DB0000E5D9540FFFADD95305307E00BD0006BE0003020826BD2006BE00030207E3BD53
:2005FB003005BE00028003020826EF600302082675DCC0900131E4F090011475F0001213E0
:20061B00D4FE24F450030207DEEE240A83F582EE241083F583E4731120DE93DED54ADE0193
:20063B00E9DEB807070707070606070706070790011675F0001213D4FEBE0102800ABE02C1
:20065B00028013BE2249801C9001317412F07508CC7509148039900131743BF07508DE7528
:20067B000914802B90011775F0001213D4FE6005BE011C800E900131742DF075081975095E
:20069B0015800C9001317415F0750846750915900131E070030207DE90011975F0001213DD
:2006BB00D4FE900131E0FDC3EE9D5005900131EEF043D10212033B02082690011575F000CA
:2006DB001213D4FE900131F053D1FD020826E5E3547FFE90011575F0001213D4035480FD94
:2006FB004EF5E3020826E5E3235401FE900113F075DD01020826900113E4F0900114F075B2
:20071B00DD02020826900113E0FEBEA10280030207DE90011775F0001213D4FE6008BE0137
:20073B0002802C0207DE7E00BE0800501CEE2413FCE43401FDEE241DF582E43401F583E00B
:20075B00FB8C828D83F00E80DF75DD080208267E00BE0800501CEE2413FCE43401FDEE2485
:20077B0027F582E43401F583E0FB8C828D83F00E80DF75DD08020826900113E0FEBEA1432B
:20079B0090011775F0001213D4FE60028035A201E433FE900113F075DD01020826900113B0
:2007BB00E0FEBE211E90011775F0001213D4FE6002801090011575F0001213D4FE24FF9296
:2007DB0001804843DC0F8043BF0002800ABF01028027BF0236802C900131E0602EE5D130D7
:2007FB00E10812033B63DC408021748055E3FF900131E0FE4FF5E3801274FC55D24402F52F
:20081B00D2800874FC55D44402F5D4C2D930D813900131E4F0D20175DC0275E300C2DAC293
:20083B00D9C2D810DA0122E5DA20E20375D8FF2243E20653E2FD7F08EF60471FEF2413F537
:20085B0082E43401F583E4F0EF241DF582E43401F583E4F08F057E00750B02F50C8D828E58
:20087B0083C0071213F0AD82AE83D007ED2DFDEE33FEED2427F582EE3401F583E4F0A3F0E0
:20089B0080B6900131E4F0D20175E22975D18175DD0075EC1375ED0175D30875EE1D75EFFA
:1C08BB000175D21275EA4075D50875E42775E50175D41A75EB0475E107D2EA22F9
:2014CC001201100100000008FECABEBA00010000000109023B00020100C032090400000149
:2014EC0003010100092111010001222D000705810308000109040100010300000009211169
:20150C000100012215000705820308000105010906A101050719E029E715002501750195DA
:20152C0008810295017508810195067508150025650507190029658100C0050C0901A10117
:0F154C007510950426FF0319002AFF038100C0C4
:0700A200900107E4F0A3F058
:2008D700900107E0FEA3E08E82F5832275820022AF827E007D02BD080050378D82C007C035
:2008F70006C005120564AC82D005D006D007ECB5070AEE540F60028003ED4206EC7010EE74
:2009170054F0600280098D04ECC454F0FC42060D80C48E8222AF827E007D08ED70030209A6
:20093700D21D8DF005F07B017C008006EB2BFBEC33FCD5F0F78F017A00E95203EA5204EB66
:200957004C604BE522601DED240BFBE43401FCED240BF582E43401F583E0FA0A8B828C83B5
:20097700EAF0802AED240BFBE43401FC8B828C83E0601BED240BFBE43401FCED240BF5827A
:20099700E43401F583E0FA1A8B828C83EAF0ED240BFBE43401FC8B828C83E060067B017C3F
:2009B7000080047B007C008D048CF005F0EB800225E0D5F0FBFB4206020932758200C00634
:2009D700120564AF82D006EFB50601228E0A758200020579AF82758200C007120564AE8208
:2009F700D0077D00E5236005EF4EFD80327F08EF602D1FEF240BFBE43401FC8B828C83E0E7
:200A170060067B017C0080047B007C008F048CF005F0EB800225E0D5F0FBFB420580D0EE30
:200A3700B50501228D0A758200020579AF82C0071208E7AE82D007740F5EFD5306F0E4C4E5
:200A5700CEC4540F6ECE540FCE6ECE30E30244F0E5246006ED7003EE7008E5247003ED708A
:200A77000122E524600280028D06E52460068F057F0080047D007F008D0A8E821205791271
:200A97000161E5828583F0900107F0E5F0A3F02285822512111385822685832785F028749D
:200AB700022526F9E43527FAAB2889828A838BF01213D4FB75F005A424A3F9740035F0FAE4
:200AD70089298A2A752B00752C0274012526F52DE43527F52E85282F852D82852E83852F17
:200AF700F01213D4704EE525704A8526828527838528F01213D4603C74012529F9E4352AE7
:200B1700FAAF2B8B82C007C002C001120F5FA882AB83ADF0FED001D002D00789828A838FFF
:200B3700F0E8121373A3EB121373A3ED121373A3EE12137374012529FDE4352AFEAF2B8D4F
:200B5700828E838FF01213D4F9A31213D4FAA31213D4FBA31213D489828A838BF0C007C097
:200B770006C0051208E3E582D005D006D00770668D828E838FF01213D4FDA31213D4FEA305
:200B97001213D4FFA31213D4FC8526828527838528F01213D4F53C8D828E838FF0EC120DE1
:200BB70034852982852A83852BF01213D4FF5307FB8526828527838528F01213D425E0257F
:200BD700E0FE4207852982852A83852BF0EF121373752C0280127401B525051201618008C9
:200BF7007402B5250312111A1205937402B5250DE52C30E2051212488003121132E52C5476
:200C170003600D12110CAD82AE83AFF0E4121373E52C30E103021150E52C30E011852D82B5
:200C3700852E83852FF074011213730212FC22121105E582700D1210FEE582600675820193
:200C5700020AA7121105E582601A1210FEE5826008758202120AA780EA121132758200124E
:200C77000AA780DF22E582FF75F005A424A3FD740035F0FE8D318E32753300E530600302BC
:200C97000D168531828532838533F01213D4FB30E26D74012531F539E43532F53A85333B27
:200CB700853982853A83853BF01213D4FBA31213D4FCA31213D4FDA31213D4FE753C008BF0
:200CD700828C838DF0EE120D348531828532838533F01213D4FE5306FB8531828532838552
:200CF70033F0EE121373853982853A83853BF0E4121373A3121373A3121373A30213738560
:200D170030347535008F36120161E5828583F0F53785F03890003475F0400211ECAC82ADFA
:200D370083AEF0FF780079008E02741F5FFBB8000BB90008BAFF05BB1F02805CE4F8F9FA45
:200D5700741F5FFB6030E53C60178B82C007C006C005C004121010D004D005D006D007803C
:200D7700158B82C007C006C005C004121029D004D005D006D00779008E028A00E8FB601895
:200D9700853C228B82C007C006C005C00412092CD004D005D006D0078D0189038C028A3D2A
:200DB700741F553DF53EA83D5300E07900B8C005B90002800BB8E005B90002803E020E6BDF
:200DD700E53C700122BB0002800BBB01028012BB0202801322853E82120FF37582000210DA
:200DF70007853E82021043A83E88F005F07401800225E0D5F0FBF5820210075302078B00B5
:200E17007900E828F8E933F9E828F8E933F9530418E4FDFEFFEDC423CCC423541F6CCC5435
:200E37001FCC6CCCFDEEC42354E04DFDEFC423CEC423541F6ECE541FCE6ECEEC48FEED4909
:200E5700FFBA0133E53C7002FEFF8E0B8F0C7582000205A5EB6008853C228B8212092CE5B8
:200E77003D6009853C24853D82120A43E53C7007F523F5820209EB22AC82AD83AEF0FF757E
:200E97003C018C828D838EF0EFC007C006C005C004120D34120593D004D005D006D0077595
:200EB7003C008C828D838EF0EF120D34020593E582FF75F005A424A3FD740035F0FC7E001C
:200ED7008D828C838EF01213D4FBF9530102E4A2E713C913C9E9B53F1D74015BB53F012216
:200EF70074FE5B453F8D828C838EF0121373853F308F82020C7C5303FDE53F25E042038D79
:200F1700828C838EF0EB0213737F14EF60141FEF75F005A424A3F582740035F0F583E4F003
:200F370080E97F08EF600F1FEF240BF582E43401F583E4F080EE1213100201CE1201EB9031
:080F57000005120147020C46DF
:0A00A900900109E4F090010A04F050
:200F5F00AF82C007120F96E582D00775F050A4242CFD741435F0FEEF2F25E02DF582E43E4B
:200F7F00F583E493FCA3E493FDA3E493FEA3E4938C828D838EF0227F017E01EE60198E82EA
:200F9F00C007C006121096E582D006D00760038F82221E8E0780E4758200227F007E00BE58
:200FBF000200502B8EF005F07C017D008006EC2CFCED33FDD5F0F790010AE0FB7A0052046F
:200FDF00EA5205EC4D60038F82220E8E0780D07582002222AF828FF005F07401800225E013
:200FFF00D5F0FBF58202105AE582900109F0020FF2AF828FF005F07401800225E0D5F0FBDA
:20101F00FF900109E04FF0020FF2AF828FF005F07401800225E0D5F0FBF4FF900109E05FC9
:20103F00F0020FF2AF82C0071210CBE582D00760058F820210108F82021029E58290010A95
:20105F00F0020FF2AF828FF005F07401800225E0D5F0FBFF90010AE04FF0020FF2AF828FA1
:20107F00F005F07401800225E0D5F0FBF4FF90010AE05FF0020FF2AF8290010AE0FE9001B5
:20109F0009E042068FF005F07F017D008006EF2FFFED33FDD5F0F77C00EE5207EC5205EF1E
:2010BF004DB40100B39202E433F58222AF8290010AE0FE900109E042068FF005F07F017D3B
:1F10DF00008006EF2FFFED33FDD5F0F77C00EE5207EC5205E4BF0004BD000104F582226E
:2010FE009000A0E0F582229000A1E0F582229000A275F0002290000075F000229000A0E09F
:20111E0075F005A42400FEE43400FF7D008E828F838DF0229000A1E07001229000A0E0FF79
:20113E000F9000A0EFF09000A1E0FF1F9000A1EFF0229000A0E07001227F009000A0E0FEE2
:20115E007D009000A1E07B002EFEEB3DFD1EBEFF011D8F037C00C3EB9EEC64808DF063F024
:20117E008095F05052EF75F005A42400FDE43400FE7A0074012BF50BE43CF50C900005C0E6
:20119E0007C006C005C00212138EAB82AC83D002D005D006EB2400FBEC3400FC8B0B8C0CFD
:2011BE00750D00750E05750F008D828E838AF012131ED0070F80849000A1E0FF9000A0E09C
:2011DE00FE1EEE2F9000A1F09000A0E4F022AD82AE83AFF09000A0E0FC7B009000A1E0F9E1
:2011FE007A00E92CF50BEA3BF50C900005C007C006C00512138EAB82AC83D005D006D007A4
:20121E00EB2400FBEC3400FC7A008D0B8E0C8F0D750E058A0F8B828C838AF012131E9000B8
:20123E00A1E0FF0F9000A1EFF0229000A1E07001227F009000A1E0FE7D001EBEFF011D8F98
:20125E00037C00C3EB9EEC64808DF063F08095F040030212F09000A0E0FE7D00EB2EF50B15
:20127E00EC3DF50C900005C007C004C00312138EAD82AE83D003D004ED2400FDEE3400FE5B
:20129E007A009000A0E0F87900EB28FBEC39FC74012BF50BE43CF50C900005C006C005C065
:2012BE000212138EAB82AC83D002D005D006EB2400FBEC3400FC8B0B8C0C750D00750E0524
:2012DE00750F008D828E838AF012131ED0070F0212519000A1E0FF1F9000A1EFF022900053
:2012FE00A1E0FF9000A0E02F9000A1F09000A0E4F0229000A0E4F09000A1F09000A2F02261
:06007800E478FFF6D8FD5C
:20131E00AD82AE83AFF08D108E118F12850B13850C14850D15A80EA90F8803890418B8FF8F
:20133E000119EB4C60258513828514838515F01213D4FCA38582138583148D828E838FF08C
:15135E00EC121373A3AD82AE8380CE8510828511838512F022CC
:200056007900E94400601B7A0090155B780175A000E493F2A308B8000205A0D9F4DAF275E0
:02007600A0FFE9
:1B13730020F71130F6138883A88220F509F6A8837583002280FEF280F5F02279
:1D138E00E582850BF0A4C582C0F0850CF0A4D0F025F0C583850BF0A42583F5832218
:2013AB007A10E4FBFCE58225E0F582E58333F583EB33FBEC33FCEB950BF5F0EC950C400650
:0913CB00FCABF0438201DADD22E3
:20007E007800E84400600A790175A000E4F309D8FC7800E84400600C7900900001E4F0A380
:04009E00D8FCD9FAB7
:0D00490075813F121428E582600302004615
:1C13D40020F71430F6148883A88220F507E6A88375830022E280F7E49322E02228
:2013F000C2D5E58330E70DD2D5E4C39582F582E49583F583E50C30E70DB2D5E4C3950BF592
:181410000BE4950CF50C1213AB30D50BE4C39582F582E49583F5832288
:0414280075820022A7
:00000001FF
